{
  "abi": [
    {
      "type": "function",
      "name": "uniV2PoolNum",
      "inputs": [
        {
          "name": "factory",
          "type": "address",
          "internalType": "address"
        }
      ],
      "outputs": [
        {
          "name": "",
          "type": "uint256",
          "internalType": "uint256"
        }
      ],
      "stateMutability": "view"
    },
    {
      "type": "function",
      "name": "uniV2PoolParams",
      "inputs": [
        {
          "name": "pool",
          "type": "address",
          "internalType": "address"
        }
      ],
      "outputs": [
        {
          "name": "",
          "type": "tuple",
          "internalType": "struct IUniswapV2Viewer.UniV2PoolParamsResponse",
          "components": [
            {
              "name": "fees",
              "type": "uint256[]",
              "internalType": "uint256[]"
            },
            {
              "name": "pool",
              "type": "address",
              "internalType": "address"
            },
            {
              "name": "factory",
              "type": "address",
              "internalType": "address"
            },
            {
              "name": "tokenList",
              "type": "address[]",
              "internalType": "address[]"
            }
          ]
        }
      ],
      "stateMutability": "view"
    },
    {
      "type": "function",
      "name": "uniV2PoolState",
      "inputs": [
        {
          "name": "pool",
          "type": "address",
          "internalType": "address"
        }
      ],
      "outputs": [
        {
          "name": "",
          "type": "tuple",
          "internalType": "struct IUniswapV2Viewer.UniV2PoolStateResponse",
          "components": [
            {
              "name": "balances",
              "type": "uint256[]",
              "internalType": "uint256[]"
            },
            {
              "name": "totalSupply",
              "type": "uint256",
              "internalType": "uint256"
            },
            {
              "name": "paused",
              "type": "bool",
              "internalType": "bool"
            }
          ]
        }
      ],
      "stateMutability": "view"
    },
    {
      "type": "function",
      "name": "uniV2Pools",
      "inputs": [
        {
          "name": "factory",
          "type": "address",
          "internalType": "address"
        },
        {
          "name": "start",
          "type": "uint256",
          "internalType": "uint256"
        },
        {
          "name": "end",
          "type": "uint256",
          "internalType": "uint256"
        }
      ],
      "outputs": [
        {
          "name": "",
          "type": "address[]",
          "internalType": "address[]"
        }
      ],
      "stateMutability": "view"
    },
    {
      "type": "function",
      "name": "uniV2SwapExactInput",
      "inputs": [
        {
          "name": "amountIn",
          "type": "uint256",
          "internalType": "uint256"
        },
        {
          "name": "router",
          "type": "address",
          "internalType": "address"
        },
        {
          "name": "path",
          "type": "address[]",
          "internalType": "address[]"
        },
        {
          "name": "recipient",
          "type": "address",
          "internalType": "Recipient"
        },
        {
          "name": "payer",
          "type": "address",
          "internalType": "Payer"
        }
      ],
      "outputs": [
        {
          "name": "inputToken",
          "type": "address",
          "internalType": "address"
        },
        {
          "name": "outputToken",
          "type": "address",
          "internalType": "address"
        },
        {
          "name": "amountOut",
          "type": "uint256",
          "internalType": "uint256"
        }
      ],
      "stateMutability": "payable"
    },
    {
      "type": "error",
      "name": "GenericError",
      "inputs": [
        {
          "name": "errorCode",
          "type": "uint256",
          "internalType": "uint256"
        }
      ]
    },
    {
      "type": "error",
      "name": "UnsafeCast",
      "inputs": []
    }
  ],
  "bytecode": {
    "object": "0x6080806040523461001657611df1908161001c8239f35b600080fdfe608080604052600436101561001357600080fd5b60003560e01c9081634cae21dc1461157b5750806353e9d16c146106cf5780636218582f1461060d5780636834128514610265576397389e6c1461005657600080fd5b34610218576020807ffffffffffffffffffffffffffffffffffffffffffffffffffffffffffffffffc3601126102185761008e6117a3565b906100976119ba565b5073ffffffffffffffffffffffffffffffffffffffff6100b56119ba565b926040516100c281611824565b600281526040368583013784521691604051927f0902f1ac000000000000000000000000000000000000000000000000000000008452606084600481845afa908115610224576004948492600091600091610230575b50610143908551926dffffffffffffffffffffffffffff80921661013b85611909565b5216916118cd565b52604051948580927f18160ddd0000000000000000000000000000000000000000000000000000000082525afa928315610224576000936101ef575b5091604083836101bf950192835261019781516118cd565b511580156101dd575b6101d2575b815194848695865260608351918701526080860190611899565b9251828501520151151560608301520390f35b6001828201526101a5565b506101e88151611909565b51156101a0565b92508183813d831161021d575b6102068183611840565b8101031261021857915191604061017f565b600080fd5b503d6101fc565b6040513d6000823e3d90fd5b6101439250610256915060603d811161025e575b61024e8183611840565b810190611a06565b509091610118565b503d610244565b34610218576020807ffffffffffffffffffffffffffffffffffffffffffffffffffffffffffffffffc3601126102185761029d6117a3565b906102a6611983565b506102af611983565b9080820173ffffffffffffffffffffffffffffffffffffffff8094168082526040517fc45a01550000000000000000000000000000000000000000000000000000000081528381600481855afa908115610224576000916105f0575b508560408601911681526040519161032283611824565b6002835260403686850137606086019283526040517f0dfe16810000000000000000000000000000000000000000000000000000000081528581600481855afa9182156102245760049287926000916105d3575b508961038287516118cd565b91169052604051928380927fd21220a70000000000000000000000000000000000000000000000000000000082525afa908115610224576000916105b6575b50866103cd8451611909565b9116905260405190608082019180831067ffffffffffffffff841117610587576004926040526003815260603687830137865261044c8782511673ffffffffffffffffffffffffffffffffffffffff166000527f82575affb1260ff4d62c8d3716a55adbfb4f4834d17f4cc760b67cccbcb7ac6a602052604060002090565b5461045787516118cd565b52620f42406104668751611909565b528487825116604051938480927f017e7e580000000000000000000000000000000000000000000000000000000082525afa918215610224578792839160009161055a575b501661054e5760ff60009594955b166104c48751611919565b52816104e160405197868952516080878a015260a0890190611899565b95511660408701525116606085015251917fffffffffffffffffffffffffffffffffffffffffffffffffffffffffffffffe084820301608085015281808451928381520193019160005b8281106105385785850386f35b835187168552938101939281019260010161052b565b60ff60019594956104b9565b61057a9150873d8911610580575b6105728183611840565b81019061194a565b896104ab565b503d610568565b7f4e487b7100000000000000000000000000000000000000000000000000000000600052604160045260246000fd5b6105cd9150853d8711610580576105728183611840565b876103c1565b6105ea9150833d8511610580576105728183611840565b8a610376565b6106079150843d8611610580576105728183611840565b8661030b565b34610218576020807ffffffffffffffffffffffffffffffffffffffffffffffffffffffffffffffffc3601126102185760048173ffffffffffffffffffffffffffffffffffffffff61065d6117a3565b16604051928380927f574f2ba30000000000000000000000000000000000000000000000000000000082525afa908115610224576000916106a2575b50604051908152f35b90508181813d83116106c8575b6106b98183611840565b81010312610218575182610699565b503d6106af565b60a07ffffffffffffffffffffffffffffffffffffffffffffffffffffffffffffffffc3601126102185773ffffffffffffffffffffffffffffffffffffffff60243516602435036102185760443567ffffffffffffffff8111610218573660238201121561021857806004013561074581611881565b916107536040519384611840565b8183526024602084019260051b8201019036821161021857602401915b81831061154e5760643573ffffffffffffffffffffffffffffffffffffffff811685818303610218576084359273ffffffffffffffffffffffffffffffffffffffff84168094036102185773ffffffffffffffffffffffffffffffffffffffff6107d9836118cd565b5116936001810361150f575033925b600181036114e257505033905b60243573ffffffffffffffffffffffffffffffffffffffff1661113a576003815110610fc7576108be92602073ffffffffffffffffffffffffffffffffffffffff61083f84611909565b511673ffffffffffffffffffffffffffffffffffffffff61085f85611919565b51169060405180809881947fe6a439050000000000000000000000000000000000000000000000000000000083528b6004840190602090939293604083019473ffffffffffffffffffffffffffffffffffffffff809216845216910152565b03915afa93841561022457600094611119575b50600435806110f0575b50508051807fffffffffffffffffffffffffffffffffffffffffffffffffffffffffffffffff810111610ee15761094c7fffffffffffffffffffffffffffffffffffffffffffffffffffffffffffffffff73ffffffffffffffffffffffffffffffffffffffff929693960186611929565b51169061096f73ffffffffffffffffffffffffffffffffffffffff841683611cff565b93946109ba73ffffffffffffffffffffffffffffffffffffffff610992836118cd565b511673ffffffffffffffffffffffffffffffffffffffff6109b284611919565b511690611a88565b50927ffffffffffffffffffffffffffffffffffffffffffffffffffffffffffffffffd825101926000945b7fffffffffffffffffffffffffffffffffffffffffffffffffffffffffffffffff84510186101561105e5773ffffffffffffffffffffffffffffffffffffffff610a2f8786611929565b511673ffffffffffffffffffffffffffffffffffffffff610a536002890187611929565b51169073ffffffffffffffffffffffffffffffffffffffff60608c6004604051809481937f0902f1ac000000000000000000000000000000000000000000000000000000008352165afa9081156102245760009060009261103b575b506dffffffffffffffffffffffffffff918216911673ffffffffffffffffffffffffffffffffffffffff85168303611035575b6040517f70a0823100000000000000000000000000000000000000000000000000000000815273ffffffffffffffffffffffffffffffffffffffff8e166004820152602081602481875afa8015610224578291600091611000575b500373ffffffffffffffffffffffffffffffffffffffff610b6160018d018b611929565b511691801591828015610ff8575b610fc75760ff610c08610bc18673ffffffffffffffffffffffffffffffffffffffff166000527f82575affb1260ff4d62c8d3716a55adbfb4f4834d17f4cc760b67cccbcb7ac6a602052604060002090565b549573ffffffffffffffffffffffffffffffffffffffff166000527f82575affb1260ff4d62c8d3716a55adbfb4f4834d17f4cc760b67cccbcb7ac69602052604060002090565b541615610f96576103e893848106610f1057849004840390848211610ee157610c3b91610c3491611a75565b8095611a75565b91818481020484141715610ee15773ffffffffffffffffffffffffffffffffffffffff93610c7393610c6d9202611976565b90611a3c565b935b1603610ed957600091995b86881015610eb957610d3e602073ffffffffffffffffffffffffffffffffffffffff610caf60038c018a611929565b511673ffffffffffffffffffffffffffffffffffffffff610cd360048d018b611929565b511690610ce08287611a88565b50956040518095819482937fe6a439050000000000000000000000000000000000000000000000000000000084526004840190602090939293604083019473ffffffffffffffffffffffffffffffffffffffff809216845216910152565b03915afa90811561022457600091610e9a575b50915b9a6040519081602081011067ffffffffffffffff60208401111761058757602082016040526000825273ffffffffffffffffffffffffffffffffffffffff83163b156102185793906040519485927f022c0d9f0000000000000000000000000000000000000000000000000000000084526004840152602483015273ffffffffffffffffffffffffffffffffffffffff841660448301526080606483015280519081608484015260005b828110610e825750509181600073ffffffffffffffffffffffffffffffffffffffff8195837fffffffffffffffffffffffffffffffffffffffffffffffffffffffffffffffe0601f60a4938685828601015201168101030193165af191821561022457600292610e73575b50950194976109e5565b610e7c90611810565b8a610e69565b602082820181015160a4898401015287945001610dfe565b610eb3915060203d602011610580576105728183611840565b8c610d51565b73ffffffffffffffffffffffffffffffffffffffff891691506000610d54565b600099610c80565b7f4e487b7100000000000000000000000000000000000000000000000000000000600052601160045260246000fd5b935060648406610f775760646127109404840390848211610ee157610f3f91610f3891611a75565b9485611a75565b91818481020484141715610ee15773ffffffffffffffffffffffffffffffffffffffff93610f7193610c6d9202611976565b93610c75565b600a620186a09404840390848211610ee157610f3f91610f3891611a75565b60246040517f948ac50300000000000000000000000000000000000000000000000000000000815260206004820152fd5b60246040517f948ac503000000000000000000000000000000000000000000000000000000008152602b6004820152fd5b508415610b6f565b9150506020813d60201161102d575b8161101c60209383611840565b81010312610218578190518f610b3d565b3d915061100f565b90610ae2565b9050611056915060603d60601161025e5761024e8183611840565b50908d610aaf565b509593509550505061108973ffffffffffffffffffffffffffffffffffffffff61108e931685611cff565b61193d565b80156110bf5773ffffffffffffffffffffffffffffffffffffffff6060936040519384521660208301526040820152f35b60246040517f948ac50300000000000000000000000000000000000000000000000000000000815260306004820152fd5b6111129173ffffffffffffffffffffffffffffffffffffffff86169087611ab0565b84806108db565b61113391945060203d602011610580576105728183611840565b92856108d1565b9092916004356114cc575b5060ff61119360243573ffffffffffffffffffffffffffffffffffffffff166000527f82575affb1260ff4d62c8d3716a55adbfb4f4834d17f4cc760b67cccbcb7ac69602052604060002090565b541615610f96576111a382611d1f565b15611393575b805190817fffffffffffffffffffffffffffffffffffffffffffffffffffffffffffffffff810111610ee15761126b60009173ffffffffffffffffffffffffffffffffffffffff61121d7fffffffffffffffffffffffffffffffffffffffffffffffffffffffffffffffff82960183611929565b51169560405194859384937f38ed173900000000000000000000000000000000000000000000000000000000855260043560048601526001602486015260a0604486015260a48501906117c6565b911660648301527fffffffffffffffffffffffffffffffffffffffffffffffffffffffffffffffff608483015203818373ffffffffffffffffffffffffffffffffffffffff602435165af190811561022457600091611301575b5080517fffffffffffffffffffffffffffffffffffffffffffffffffffffffffffffffff8101908111610ee1576112fb91611929565b5161108e565b90503d806000833e6113138183611840565b8101906020818303126102185780519067ffffffffffffffff821161021857019080601f8301121561021857815161134a81611881565b926113586040519485611840565b81845260208085019260051b82010192831161021857602001905b82821061138357505050836112c5565b8151815260209182019101611373565b6040517fdd62ed3e0000000000000000000000000000000000000000000000000000000081523060048201526024803573ffffffffffffffffffffffffffffffffffffffff1690820152602081604481865afa8015610224576114a1575b506024356014527fffffffffffffffffffffffffffffffffffffffffffffffffffffffffffffffff806034526f095ea7b300000000000000000000000080600052602060006044601082885af13d1560016000511417161561145a575b505060006034526111a9565b60006034526000526000806044601082875af150603452602060006044601082865af13d1560016000511417161561149357838061144e565b633e3f8f736000526004601cfd5b602090813d83116114c5575b6114b78183611840565b8101031261021857836113f1565b503d6114ad565b6114dc9060043590309085611ab0565b83611145565b600281036114f357505030906107f5565b6114fc90611d1f565b15611509575033906107f5565b906107f5565b60020361151d5730926107e8565b60246040517f948ac50300000000000000000000000000000000000000000000000000000000815260266004820152fd5b823573ffffffffffffffffffffffffffffffffffffffff8116810361021857815260209283019201610770565b346102185760607ffffffffffffffffffffffffffffffffffffffffffffffffffffffffffffffffc360112610218576115b26117a3565b90602480359260443573ffffffffffffffffffffffffffffffffffffffff809216907f574f2ba30000000000000000000000000000000000000000000000000000000085526020948581600481865afa8015610224578791600091611770575b509182611626938211611768575b5061193d565b9161163083611881565b9561163e6040519788611840565b8387527fffffffffffffffffffffffffffffffffffffffffffffffffffffffffffffffe061166b85611881565b01368789013760005b848110611692576040518781528061168e818a018b6117c6565b0390f35b61169c8183611976565b604051907f1e3dd18b000000000000000000000000000000000000000000000000000000008252600482015287818881885afa9081156102245760009161174b575b50836116ea838b611929565b911690527fffffffffffffffffffffffffffffffffffffffffffffffffffffffffffffffff811461171d57600101611674565b857f4e487b710000000000000000000000000000000000000000000000000000000060005260116004526000fd5b6117629150883d8a11610580576105728183611840565b896116de565b905088611620565b809250878092503d831161179c575b6117898183611840565b8101031261021857518690611626611612565b503d61177f565b6004359073ffffffffffffffffffffffffffffffffffffffff8216820361021857565b90815180825260208080930193019160005b8281106117e6575050505090565b835173ffffffffffffffffffffffffffffffffffffffff16855293810193928101926001016117d8565b67ffffffffffffffff811161058757604052565b6060810190811067ffffffffffffffff82111761058757604052565b90601f7fffffffffffffffffffffffffffffffffffffffffffffffffffffffffffffffe0910116810190811067ffffffffffffffff82111761058757604052565b67ffffffffffffffff81116105875760051b60200190565b90815180825260208080930193019160005b8281106118b9575050505090565b8351855293810193928101926001016118ab565b8051156118da5760200190565b7f4e487b7100000000000000000000000000000000000000000000000000000000600052603260045260246000fd5b8051600110156118da5760400190565b8051600210156118da5760600190565b80518210156118da5760209160051b010190565b91908203918211610ee157565b90816020910312610218575173ffffffffffffffffffffffffffffffffffffffff811681036102185790565b91908201809211610ee157565b604051906080820182811067ffffffffffffffff821117610587576040526060808381815260006020820152600060408201520152565b604051906060820182811067ffffffffffffffff821117610587576040526000604083606081528260208201520152565b51906dffffffffffffffffffffffffffff8216820361021857565b9081606091031261021857611a1a816119eb565b916040611a29602084016119eb565b92015163ffffffff811681036102185790565b8115611a46570490565b7f4e487b7100000000000000000000000000000000000000000000000000000000600052601260045260246000fd5b81810292918115918404141715610ee157565b73ffffffffffffffffffffffffffffffffffffffff8281169082161015611aac5791565b9091565b92919073ffffffffffffffffffffffffffffffffffffffff8082163003611ade575050611adc92611af2565b565b611aeb611adc9594611d70565b1692611bc6565b9073ffffffffffffffffffffffffffffffffffffffff1690308214611bc157611b1a81611d1f565b15611b3e575060008080935a935af115611b3057565b63b12d13eb6000526004601cfd5b826020927f800000000000000000000000000000000000000000000000000000000000000060109514611baf575b60145260345260446000938480936fa9059cbb00000000000000000000000082525af13d156001835114171615611ba257603452565b6390b8ec1890526004601cfd5b9050611bbb3083611cd0565b90611b6c565b505050565b9173ffffffffffffffffffffffffffffffffffffffff9081169116818114611bf757611bf183611d1f565b15611bfd575b50505050565b611c09611c0f94611d70565b92611c18565b38808080611bf7565b9173ffffffffffffffffffffffffffffffffffffffff808092169216828114611cc957817f6a2b33915c87ebbd2e7a47520fe4aaa6f0e18ef6bdebd64915d7aeced08d4481541693843b1561021857600094838692608495604051998a9889977f36c78516000000000000000000000000000000000000000000000000000000008952600489015260248801521660448601521660648401525af1801561022457611cc05750565b611adc90611810565b5050505050565b602460106020939284936014526f70a082310000000000000000000000006000525afa601f3d11166020510290565b611d0881611d1f565b15611d1257503190565b90611d1c91611cd0565b90565b73ffffffffffffffffffffffffffffffffffffffff1673eeeeeeeeeeeeeeeeeeeeeeeeeeeeeeeeeeeeeeee8114908115611d64575b8115611d5e575090565b90501590565b61101081149150611d54565b73ffffffffffffffffffffffffffffffffffffffff90818111611d91571690565b60046040517fc4bd89a9000000000000000000000000000000000000000000000000000000008152fdfea264697066735822122008fa53695ab0d7ca8c557be685958b279abc2b282e0c6b46086881c0698e223464736f6c63430008130033",
    "linkReferences": {}
  },
  "methodIdentifiers": {
    "uniV2PoolNum(address)": "6218582f",
    "uniV2PoolParams(address)": "68341285",
    "uniV2PoolState(address)": "97389e6c",
    "uniV2Pools(address,uint256,uint256)": "4cae21dc",
    "uniV2SwapExactInput(uint256,address,address[],address,address)": "53e9d16c"
  },
  "id": 1
}