{"abi":[{"type":"function","name":"uniV3GetTicks","inputs":[{"name":"pool","type":"address","internalType":"contract IUniswapV3Pool"},{"name":"tickRange","type":"int24","internalType":"int24"}],"outputs":[{"name":"ticks","type":"tuple[]","internalType":"struct IUniswapV3Viewer.Tick[]","components":[{"name":"liquidityGross","type":"uint128","internalType":"uint128"},{"name":"liquidityNet","type":"int128","internalType":"int128"},{"name":"feeGrowthOutside0X128","type":"uint256","internalType":"uint256"},{"name":"feeGrowthOutside1X128","type":"uint256","internalType":"uint256"},{"name":"tick","type":"int24","internalType":"int24"}]}],"stateMutability":"view"},{"type":"function","name":"uniV3PoolParams","inputs":[{"name":"pool","type":"address","internalType":"address"}],"outputs":[{"name":"","type":"tuple","internalType":"struct IUniswapV3Viewer.UniV3PoolParamsResponse","components":[{"name":"pool","type":"address","internalType":"address"},{"name":"tickSpacing","type":"int24","internalType":"int24"},{"name":"fee","type":"uint24","internalType":"uint24"},{"name":"maxLiquidityPerTick","type":"uint128","internalType":"uint128"},{"name":"factory","type":"address","internalType":"address"},{"name":"tokenList","type":"address[]","internalType":"address[]"}]}],"stateMutability":"view"},{"type":"function","name":"uniV3PoolState","inputs":[{"name":"pool","type":"address","internalType":"address"}],"outputs":[{"name":"","type":"tuple","internalType":"struct IUniswapV3Viewer.UniV3PoolStateResponse","components":[{"name":"sqrtPriceX96","type":"uint160","internalType":"uint160"},{"name":"blockTimestamp","type":"uint32","internalType":"uint32"},{"name":"feeProtocol","type":"uint32","internalType":"uint32"},{"name":"tick","type":"int24","internalType":"int24"},{"name":"observationIndex","type":"uint16","internalType":"uint16"},{"name":"observationCardinality","type":"uint16","internalType":"uint16"},{"name":"liquidity","type":"uint128","internalType":"uint128"},{"name":"observationCardinalityNext","type":"uint16","internalType":"uint16"}]}],"stateMutability":"view"},{"type":"function","name":"uniV3SwapExactInput","inputs":[{"name":"amountIn","type":"uint256","internalType":"uint256"},{"name":"path","type":"bytes","internalType":"bytes"},{"name":"recipient","type":"address","internalType":"Recipient"},{"name":"payer","type":"address","internalType":"Payer"}],"outputs":[{"name":"inputToken","type":"address","internalType":"address"},{"name":"outputToken","type":"address","internalType":"address"},{"name":"amountOut","type":"uint256","internalType":"uint256"}],"stateMutability":"payable"},{"type":"function","name":"uniswapV3SwapCallback","inputs":[{"name":"amount0Delta","type":"int256","internalType":"int256"},{"name":"amount1Delta","type":"int256","internalType":"int256"},{"name":"data","type":"bytes","internalType":"bytes"}],"outputs":[],"stateMutability":"nonpayable"},{"type":"error","name":"GenericError","inputs":[{"name":"errorCode","type":"uint256","internalType":"uint256"}]},{"type":"error","name":"UnsafeCast","inputs":[]}],"bytecode":{"object":"0x6080806040523461001657612567908161001c8239f35b600080fdfe6080604052600436101561001257600080fd5b60003560e01c80633f12c9321461184c5780637336faf9146112c15780638fc1fe1114610e03578063acce19251461056c5763fa461e331461005357600080fd5b346104025760607ffffffffffffffffffffffffffffffffffffffffffffffffffffffffffffffffc3601126104025760443560043567ffffffffffffffff80831161040257366023840112156104025782600401358181116104025783019060248201913683116104025760008413158061055f575b61052e578460409103126104025760248401359081116104025760449160246100f492860101611ba8565b92013573ffffffffffffffffffffffffffffffffffffffff811681036104025761011d83612217565b9073ffffffffffffffffffffffffffffffffffffffff81959495166000527f82575affb1260ff4d62c8d3716a55adbfb4f4834d17f4cc760b67cccbcb7ac6960205260ff60406000205416156104fd576040517f1698ee8200000000000000000000000000000000000000000000000000000000815273ffffffffffffffffffffffffffffffffffffffff8681166004830152848116602483015262ffffff9390931660448201529160209183916064918391165afa90811561040e576000916104de575b5073ffffffffffffffffffffffffffffffffffffffff339116036104ad5760008413156104875773ffffffffffffffffffffffffffffffffffffffff811673ffffffffffffffffffffffffffffffffffffffff8416105b1561024d575061024b93503391611f4f565b005b84519193925090606a1161047957509060206102746102eb9361026f866122cd565b611bef565b61027d85612217565b6040517f1698ee8200000000000000000000000000000000000000000000000000000000815273ffffffffffffffffffffffffffffffffffffffff948516600482018190529385166024820181905262ffffff90921660448201529792119492879283919082906064820190565b0392165afa91821561040e5773ffffffffffffffffffffffffffffffffffffffff95604095600094610435575b506000916103d161034c61037e8a9484871461041a576401000276a4995b868c519485938e60208601526060850190611ef1565b91168c830152037fffffffffffffffffffffffffffffffffffffffffffffffffffffffffffffffe08101835282611b2d565b8851998a98899788957f128acb080000000000000000000000000000000000000000000000000000000087523360048801526024870152604486015216606484015260a0608484015260a4830190611ef1565b0393165af1801561040e576103e257005b604090813d8311610407575b6103f88183611b2d565b8101031261040257005b600080fd5b503d6103ee565b6040513d6000823e3d90fd5b73fffd8963efd1fc6a506488495d951d5263988d2599610336565b87919450916103d161034c61037e61046660009660203d602011610472575b61045e8183611b2d565b810190611c8d565b97945050505091610318565b503d610454565b909161024b93503391611f4f565b602435935073ffffffffffffffffffffffffffffffffffffffff83811690821610610239565b60246040517f948ac50300000000000000000000000000000000000000000000000000000000815260236004820152fd5b6104f7915060203d6020116104725761045e8183611b2d565b386101e2565b60246040517f948ac50300000000000000000000000000000000000000000000000000000000815260206004820152fd5b60246040517f948ac50300000000000000000000000000000000000000000000000000000000815260096004820152fd5b50600060243513156100c9565b346104025760407ffffffffffffffffffffffffffffffffffffffffffffffffffffffffffffffffc3601126104025760043573ffffffffffffffffffffffffffffffffffffffff81168103610402576024358060020b8103610402576040517fd0c93a7c00000000000000000000000000000000000000000000000000000000815260208160048173ffffffffffffffffffffffffffffffffffffffff87165afa90811561040e57600091610dc9575b506106f2816106e56106d66040517f3850c7bd0000000000000000000000000000000000000000000000000000000060208201526004815261065d81611af5565b6040519061066a82611b11565b602582527f416464726573733a206c6f772d6c6576656c207374617469632063616c6c206660208301527f61696c6564000000000000000000000000000000000000000000000000000000604083015273ffffffffffffffffffffffffffffffffffffffff891661241e565b60208082518301019101611d83565b5050505050949050611de7565b916106fd8382611dfe565b9260020b9060020b01907fffffffffffffffffffffffffffffffffffffffffffffffffffffffffff800000627fffff818412818513176108a557837ffffffffffffffffffffffffffffffffffffffffffffffffffffffffffff27618808760020b12610dc1575b50620d89e8809160020b13610db9575b5060016107818686611dfe565b60020b01918212908213176108a5578161079a91611e38565b60020b91600183018093116108a5577fffffffffffffffffffffffffffffffffffffffffffffffffffffffffffffffe06107ec6107d685611cb9565b946107e46040519687611b2d565b808652611cb9565b013660208501376000916108008186611e38565b60020b60081d60010b956108148284611e38565b60020b60081d60010b965b878160010b13610ad7576040517f5339c2960000000000000000000000000000000000000000000000000000000081528160010b600482015260208160248173ffffffffffffffffffffffffffffffffffffffff87165afa90811561040e57600091610aa5575b50805b6108d45750617fff8160010b146108a557600190810b0161081f565b7f4e487b7100000000000000000000000000000000000000000000000000000000600052601160045260246000fd5b80199060006001830183116108a55760018693018216700100000000000000000000000000000000811015610a9a575b68010000000000000000811015610a79575b640100000000811015610a58575b62010000811015610a38575b610100811015610a17575b60108110156109f6575b60048110156109d6575b600211156109ba575b60ff6109789116916001831b1892839260020b8560081b60020b17611de7565b60020b8960020b811215806109ad575b610993575b50610889565b6109a661099f89611ec4565b988a611cd1565b528a61098d565b508660020b811315610988565b915060ff9182600181831601116108a557859216600101610958565b90925060021c60ff80600281861601116108a5578693166002019061094f565b90925060041c60ff9283600481831601116108a55786931660040190610945565b90925060081c60ff9283600881831601116108a5578693166008019061093b565b909250601090811c9060ff808281871601116108a5578794160190610930565b90925060201c60ff9283602081831601116108a55786931660200190610924565b90925060401c60ff9283604081831601116108a55786931660400190610916565b60809150811c610904565b90506020813d602011610acf575b81610ac060209383611b2d565b81010312610402575189610886565b3d9150610ab3565b508484610ae381611cb9565b92610af16040519485611b2d565b8184527fffffffffffffffffffffffffffffffffffffffffffffffffffffffffffffffe0610b1e83611cb9565b0160005b818110610d3d57505060005b828110610bbf578460405180916020820160208352815180915260206040840192019060005b818110610b62575050500390f35b91935091602060a060019286516fffffffffffffffffffffffffffffffff815116825283810151600f0b84830152604081015160408301526060808201519083015260808091015160020b90820152019401910191849392610b54565b610bc98185611cd1565b5160020b90604051917ff30dba930000000000000000000000000000000000000000000000000000000083526004830152610100808360248173ffffffffffffffffffffffffffffffffffffffff88165afa90811561040e57600080600092600094610caf575b50610caa95506fffffffffffffffffffffffffffffffff610c51868c611cd1565b51911690526020610c62858b611cd1565b510190600f0b90526040610c76848a611cd1565b5101526060610c858389611cd1565b510152610c928186611cd1565b5160020b6080610ca28389611cd1565b510152611ec4565b610b2e565b935050505082813d8311610d36575b610cc88183611b2d565b8101031261040257610cd982611c70565b60208301519081600f0b820361040257604084015160608501519160808601518060060b0361040257610d2b60e087610d1760a0610caa9a01611d35565b50610d2460c08201611d65565b5001611d76565b50929091928a610c30565b503d610cbe565b6040519060a082019180831067ffffffffffffffff841117610d8a576020926040526000815260008382015260006040820152600060608201526000608082015282828901015201610b22565b7f4e487b7100000000000000000000000000000000000000000000000000000000600052604160045260246000fd5b935086610774565b955087610764565b90506020813d602011610dfb575b81610de460209383611b2d565b8101031261040257610df590611c62565b8361061c565b3d9150610dd7565b346104025760207ffffffffffffffffffffffffffffffffffffffffffffffffffffffffffffffffc36011261040257610e3a611ad2565b610e42611c1c565b5073ffffffffffffffffffffffffffffffffffffffff610e60611c1c565b91168082526040517fd0c93a7c000000000000000000000000000000000000000000000000000000008152602081600481855afa90811561040e57600091611287575b5060020b60208301526040517fddca3f43000000000000000000000000000000000000000000000000000000008152602081600481855afa801561040e57600090611246575b62ffffff91501660408301526040517f70cf754a000000000000000000000000000000000000000000000000000000008152602081600481855afa801561040e576000906111fd575b6fffffffffffffffffffffffffffffffff166060840152506040517fc45a0155000000000000000000000000000000000000000000000000000000008152602081600481855afa801561040e5773ffffffffffffffffffffffffffffffffffffffff916000916111de575b50166080830152604051610fb081611b11565b60028152604036602083013760a08301526040517f0dfe1681000000000000000000000000000000000000000000000000000000008152602081600481855afa90811561040e576000916111bf575b5060a08301519182511561117157600492602073ffffffffffffffffffffffffffffffffffffffff819416910152604051928380927fd21220a70000000000000000000000000000000000000000000000000000000082525afa90811561040e576000916111a0575b5060a0820151908151600110156111715773ffffffffffffffffffffffffffffffffffffffff6040911691015260405180916020825260a060e083019173ffffffffffffffffffffffffffffffffffffffff8151166020850152602081015160020b604085015262ffffff60408201511660608501526fffffffffffffffffffffffffffffffff606082015116608085015273ffffffffffffffffffffffffffffffffffffffff6080820151168285015201519060c08084015281518091526020610100840192019060005b818110611142575050500390f35b825173ffffffffffffffffffffffffffffffffffffffff16845285945060209384019390920191600101611134565b7f4e487b7100000000000000000000000000000000000000000000000000000000600052603260045260246000fd5b6111b9915060203d6020116104725761045e8183611b2d565b82611068565b6111d8915060203d6020116104725761045e8183611b2d565b83610fff565b6111f7915060203d6020116104725761045e8183611b2d565b84610f9d565b506020813d60201161123e575b8161121760209383611b2d565b81010312610402576112396fffffffffffffffffffffffffffffffff91611c70565b610f32565b3d915061120a565b506020813d60201161127f575b8161126060209383611b2d565b81010312610402575162ffffff811681036104025762ffffff90610ee9565b3d9150611253565b90506020813d6020116112b9575b816112a260209383611b2d565b81010312610402576112b390611c62565b83610ea3565b3d9150611295565b60807ffffffffffffffffffffffffffffffffffffffffffffffffffffffffffffffffc3601126104025760043560243567ffffffffffffffff81116104025761130e903690600401611ba8565b60443573ffffffffffffffffffffffffffffffffffffffff8116808203610402576064359373ffffffffffffffffffffffffffffffffffffffff851692838603610402578195506113608551866122af565b936001810361180e5750335b926001810361177d5750507f800000000000000000000000000000000000000000000000000000000000000033915b1461176b575b905b835194603f861061173a57602061145860405192601f880151601f850152603f880151603f850152603f845260608401604052606a89101560001461173457305b6113ed85612217565b6040517f1698ee8200000000000000000000000000000000000000000000000000000000815273ffffffffffffffffffffffffffffffffffffffff8581166004830152808516602483015262ffffff9092166044820152929993979296879291839182906064820190565b0392165afa93841561040e57600094611713575b5073ffffffffffffffffffffffffffffffffffffffff871673ffffffffffffffffffffffffffffffffffffffff8616106000146116f8576401000276a4955b6040519182916020830160409052606083016114c691611ef1565b9073ffffffffffffffffffffffffffffffffffffffff166040830152037fffffffffffffffffffffffffffffffffffffffffffffffffffffffffffffffe0810182526115129082611b2d565b60405195869384937f128acb0800000000000000000000000000000000000000000000000000000000855273ffffffffffffffffffffffffffffffffffffffff16600485015273ffffffffffffffffffffffffffffffffffffffff891673ffffffffffffffffffffffffffffffffffffffff8816106024850152604484015273ffffffffffffffffffffffffffffffffffffffff1660648301526084820160a0905260a482016115c191611ef1565b039173ffffffffffffffffffffffffffffffffffffffff1691815a604094600091f192831561040e576000926000946116b7575b5091606a939173ffffffffffffffffffffffffffffffffffffffff8061162695169116106000146116b05750611bef565b941061163d573090611637846122cd565b906113a3565b50908061164b9151906122be565b91801561167f5773ffffffffffffffffffffffffffffffffffffffff60609381604051941684521660208301526040820152f35b60246040517f948ac50300000000000000000000000000000000000000000000000000000000815260306004820152fd5b9050611bef565b93509091506040833d6040116116f0575b816116d560409383611b2d565b810103126104025782516020909301519291906116266115f5565b3d91506116c8565b73fffd8963efd1fc6a506488495d951d5263988d25956114ab565b61172d91945060203d6020116104725761045e8183611b2d565b928b61146c565b856113e4565b60246040517f948ac50300000000000000000000000000000000000000000000000000000000815260326004820152fd5b935061177730836121a9565b936113a1565b600281036117af5750507f8000000000000000000000000000000000000000000000000000000000000000309161139b565b6117b8906121c6565b156117e657507f8000000000000000000000000000000000000000000000000000000000000000339161139b565b7f8000000000000000000000000000000000000000000000000000000000000000909161139b565b60020361181b573061136c565b60246040517f948ac50300000000000000000000000000000000000000000000000000000000815260266004820152fd5b346104025760207ffffffffffffffffffffffffffffffffffffffffffffffffffffffffffffffffc3601126104025773ffffffffffffffffffffffffffffffffffffffff611898611ad2565b6118a0611ce5565b5060206118ab611ce5565b9163ffffffff4216828401528361ffff808063ffffffff61196d61195f6040517f3850c7bd000000000000000000000000000000000000000000000000000000008a820152600481526118fd81611af5565b6040519061190a82611b11565b602582527f416464726573733a206c6f772d6c6576656c207374617469632063616c6c20668b8301527f61696c656400000000000000000000000000000000000000000000000000000060408301528961241e565b888082518301019101611d83565b50989498979295909193971660408d01521660e08b01521660a089015216608087015260020b60608601521683526004604051809581937f1a686502000000000000000000000000000000000000000000000000000000008352165afa91821561040e57600092611a83575b506fffffffffffffffffffffffffffffffff610100921660c082015261ffff60e06040519273ffffffffffffffffffffffffffffffffffffffff815116845263ffffffff602082015116602085015263ffffffff6040820151166040850152606081015160020b60608501528260808201511660808501528260a08201511660a08501526fffffffffffffffffffffffffffffffff60c08201511660c085015201511660e0820152f35b91506020823d602011611aca575b81611a9e60209383611b2d565b81010312610402576fffffffffffffffffffffffffffffffff611ac361010093611c70565b92506119d9565b3d9150611a91565b6004359073ffffffffffffffffffffffffffffffffffffffff8216820361040257565b6040810190811067ffffffffffffffff821117610d8a57604052565b6060810190811067ffffffffffffffff821117610d8a57604052565b90601f7fffffffffffffffffffffffffffffffffffffffffffffffffffffffffffffffe0910116810190811067ffffffffffffffff821117610d8a57604052565b67ffffffffffffffff8111610d8a57601f017fffffffffffffffffffffffffffffffffffffffffffffffffffffffffffffffe01660200190565b81601f8201121561040257803590611bbf82611b6e565b92611bcd6040519485611b2d565b8284526020838301011161040257816000926020809301838601378301015290565b7f800000000000000000000000000000000000000000000000000000000000000081146108a55760000390565b6040519060c0820182811067ffffffffffffffff821117610d8a57604052606060a083600081526000602082015260006040820152600083820152600060808201520152565b51908160020b820361040257565b51906fffffffffffffffffffffffffffffffff8216820361040257565b90816020910312610402575173ffffffffffffffffffffffffffffffffffffffff811681036104025790565b67ffffffffffffffff8111610d8a5760051b60200190565b80518210156111715760209160051b010190565b60405190610100820182811067ffffffffffffffff821117610d8a576040528160e06000918281528260208201528260408201528260608201528260808201528260a08201528260c08201520152565b519073ffffffffffffffffffffffffffffffffffffffff8216820361040257565b519061ffff8216820361040257565b519063ffffffff8216820361040257565b5190811515820361040257565b908160e091031261040257611d9781611d35565b91611da460208301611c62565b91611db160408201611d56565b91611dbe60608301611d56565b91611dcb60808201611d56565b91611de460c0611ddd60a08501611d65565b9301611d76565b90565b9060020b9060020b02908160020b9182036108a557565b9060020b9060020b0390627fffff82137fffffffffffffffffffffffffffffffffffffffffffffffffffffffffff8000008312176108a557565b60020b9060020b908115611e95577fffffffffffffffffffffffffffffffffffffffffffffffffffffffffffffffff82147fffffffffffffffffffffffffffffffffffffffffffffffffffffffffff8000008214166108a5570590565b7f4e487b7100000000000000000000000000000000000000000000000000000000600052601260045260246000fd5b7fffffffffffffffffffffffffffffffffffffffffffffffffffffffffffffffff81146108a55760010190565b919082519283825260005b848110611f3b5750507fffffffffffffffffffffffffffffffffffffffffffffffffffffffffffffffe0601f8460006020809697860101520116010190565b602081830181015184830182015201611efc565b92919073ffffffffffffffffffffffffffffffffffffffff8082163003611f7d575050611f7b92611f91565b565b611f8a611f7b95946123d3565b1692612065565b9073ffffffffffffffffffffffffffffffffffffffff169030821461206057611fb9816121c6565b15611fdd575060008080935a935af115611fcf57565b63b12d13eb6000526004601cfd5b826020927f80000000000000000000000000000000000000000000000000000000000000006010951461204e575b60145260345260446000938480936fa9059cbb00000000000000000000000082525af13d15600183511417161561204157603452565b6390b8ec1890526004601cfd5b905061205a308361217a565b9061200b565b505050565b9173ffffffffffffffffffffffffffffffffffffffff908116911681811461209657612090836121c6565b1561209c575b50505050565b6120a86120ae946123d3565b926120b7565b38808080612096565b9173ffffffffffffffffffffffffffffffffffffffff80809216921682811461217357817f6a2b33915c87ebbd2e7a47520fe4aaa6f0e18ef6bdebd64915d7aeced08d4481541693843b1561040257600094838692608495604051998a9889977f36c78516000000000000000000000000000000000000000000000000000000008952600489015260248801521660448601521660648401525af1801561040e5761215f5750565b67ffffffffffffffff8111610d8a57604052565b5050505050565b602460106020939284936014526f70a082310000000000000000000000006000525afa601f3d11166020510290565b6121b2816121c6565b156121bc57503190565b90611de49161217a565b73ffffffffffffffffffffffffffffffffffffffff1673eeeeeeeeeeeeeeeeeeeeeeeeeeeeeeeeeeeeeeee811490811561220b575b8115612205575090565b90501590565b611010811491506121fb565b90815161222481846122af565b926028821061227e57602881015191602b811061224d5761224a90602b830151926122be565b92565b60246040517f948ac50300000000000000000000000000000000000000000000000000000000815260356004820152fd5b60246040517f948ac50300000000000000000000000000000000000000000000000000000000815260386004820152fd5b9060141161227e576014015190565b90603f1161227e57603f015190565b8051907fffffffffffffffffffffffffffffffffffffffffffffffffffffffffffffffd591828101928184116108a557837ffffffffffffffffffffffffffffffffffffffffffffffffffffffffffffffff48301106123a257602b82106123a2578183511061173a57602b821461237157601f8416801560051b01830191820101602b8201915b8181106123615750505052565b8251815260209283019201612354565b60246040517f948ac50300000000000000000000000000000000000000000000000000000000815260346004820152fd5b60246040517f948ac50300000000000000000000000000000000000000000000000000000000815260336004820152fd5b73ffffffffffffffffffffffffffffffffffffffff908181116123f4571690565b60046040517fc4bd89a9000000000000000000000000000000000000000000000000000000008152fd5b600080611de49493602081519101845afa3d1561245d573d9161244083611b6e565b9261244e6040519485611b2d565b83523d6000602085013e612461565b6060915b919290156124dc5750815115612475575090565b3b1561247e5790565b60646040517f08c379a000000000000000000000000000000000000000000000000000000000815260206004820152601d60248201527f416464726573733a2063616c6c20746f206e6f6e2d636f6e74726163740000006044820152fd5b8251909150156124ef5750805190602001fd5b61252d906040519182917f08c379a0000000000000000000000000000000000000000000000000000000008352602060048401526024830190611ef1565b0390fdfea264697066735822122013c7a033b077e6eaaefc65d77df02f639eddedac7036802187b4c05bea91d4d964736f6c63430008130033","linkReferences":{}},"methodIdentifiers":{"uniV3GetTicks(address,int24)":"acce1925","uniV3PoolParams(address)":"8fc1fe11","uniV3PoolState(address)":"3f12c932","uniV3SwapExactInput(uint256,bytes,address,address)":"7336faf9","uniswapV3SwapCallback(int256,int256,bytes)":"fa461e33"},"id":2}